:100000000C945D000C94E8030C94C1030C948500DF
:100010000C9485000C9485000C9485000C940F04BE
:100020000C9485000C9485000C9485000C9485003C
:100030000C9485000C9485000C9485000C9485002C
:100040000C9477030C9485000C9485000C94850027
:100050000C9485000C9485000C9485000C9485000C
:100060000C9485000C94850000000008000201003B
:100070000003040700000000000000000000000072
:10008000250028002B0000000000240027002A0083
:10009000010204081020408001020408102001021F
:1000A00004081020040404040404040402020202EC
:1000B0000202030303030303BC0411241FBECFEF9A
:1000C000D8E0DEBFCDBF11E0A0E0B1E0EEEFFCE094
:1000D00002C005900D92A630B107D9F722E0A6E044
:1000E000B1E001C01D92AB3CB207E1F710E0CDE5F5
:1000F000D0E004C02197FE010E947706CC35D107DD
:10010000C9F70E941E050C947D060C940000EEE0D9
:10011000F2E020E030E098E9408187FF09C047FF26
:1001200009C03996275F3F4F243B3105A9F7089551
:100130004813F7CFD901A25FBD4F17969C9317972D
:1001400018969C9387FDEDCF089590E0FC01E85947
:10015000FF4F3491FC01E057FF4F2491FC01EC5517
:10016000FF4FE491EE2309F43BC0332339F13330E0
:1001700091F038F43130A9F0323001F584B58F7D3B
:1001800012C0373091F03830A1F03430B9F480919A
:1001900080008F7D03C0809180008F7780938000E6
:1001A0000DC084B58F7784BD09C08091B0008F7772
:1001B00003C08091B0008F7D8093B000F0E0EE0F1F
:1001C000FF1FE458FF4FA591B4918FB7F894EC91BD
:1001D000611103C020952E2301C02E2B2C938FBFBD
:1001E0000895CF93DF9390E0FC01E057FF4F2491F7
:1001F000FC01EC55FF4F8491882361F190E0880F5A
:10020000991FFC01EA57FF4FC591D491FC01E458B6
:10021000FF4FA591B491611109C09FB7F8948881EF
:10022000209582238883EC912E230BC0623061F4E9
:100230009FB7F8943881822F809583238883EC912F
:100240002E2B2C939FBF06C08FB7F894E8812E2BDE
:1002500028838FBFDF91CF910895CF93EEE0F2E036
:10026000AFEF90E0208187FF03C027FF06C04BC09F
:10027000281719F0AF3F41F404C0658387FDFACF1A
:1002800046C0208127FDA92F9F5F3996943151F7F1
:1002900087FD3DC0AF3F09F43AC0C82F89E0A802EE
:1002A000D0011124A25FBD4FCC9320910D02119675
:1002B0002C9311978C2F0C2E000C990BFC01EC55F4
:1002C000FF4FE491F0E0EE0FFF1FE458FF4F459120
:1002D000549113965C934E931297FC01E057FF4F95
:1002E000E4911496EC93149715966C93211102C027
:1002F00060E001C061E08C2F0E94A50061E08C2FBE
:10030000CF910C94F100AF3F09F0BECFBCCFCF919D
:1003100008953FB7F89480918B0190918C01A09142
:100320008D01B0918E0126B5A89B05C02F3F19F015
:100330000196A11DB11D3FBFBA2FA92F982F882765
:10034000820F911DA11DB11DBC01CD0142E0660FC0
:10035000771F881F991F4A95D1F708958F929F9212
:10036000AF92BF92CF92DF92EF92FF926B017C012E
:100370000E9489014B015C01C114D104E104F10424
:10038000F1F00E948901DC01CB0188199909AA09C1
:10039000BB09883E9340A105B10570F321E0C21A64
:1003A000D108E108F10888EE880E83E0981EA11CB0
:1003B000B11CC114D104E104F10419F7DDCFFF90A1
:1003C000EF90DF90CF90BF90AF909F908F90089567
:1003D00008951F93CF93DF93162FEA01682F83E0D0
:1003E0000E942D01612F84E00E942D0161E085E0D3
:1003F0000E94F100209711F460E004C0CF3FD105C6
:1004000039F461E085E0DF91CF911F910C94A50054
:10041000EDE6F0E0E491E330F9F048F4E130B9F0D2
:10042000E230A1F584B5806284BDC8BD34C0E73038
:10043000E9F0E83019F1E43049F5809180008062FC
:1004400080938000D0938B00C0938A0024C084B531
:10045000806884BDC7BD1FC0809180008068809384
:100460008000D0938900C093880015C08091B000AF
:1004700080688093B000C093B3000DC08091B0003D
:1004800080628093B000C093B40005C0C038D1052D
:100490000CF0B7CFB1CFDF91CF911F9108958EBDF2
:1004A00000000DB407FEFDCF8EB508950F931F9386
:1004B000CF93DF938C01C3ECD2E060E08A810E948D
:1004C000A500C80123E0969587952A95E1F78068F5
:1004D0000E944F02802F8295880F807E0E944F02DB
:1004E00080E00E944F02182F61E08A810E94A500DF
:1004F000812FDF91CF911F910F9108950F931F933B
:10050000CF93DF93C82FD62F03EC12E060E0F80101
:1005100082810E94A500CC0F8C2F8E7781600E9473
:100520004F028D2F0E944F0261E0F8018281DF911E
:10053000CF911F910F910C94A500FF920F931F93E1
:10054000CF93DF93EC01F62E03EC12E060E0F801AC
:1005500082810E94A500CE0123E0969587952A9579
:10056000E1F780680E944F028C2F8295880F807E71
:1005700080610E944F028F2D0E944F0261E0F801BE
:100580008281DF91CF911F910F91FF900C94A50074
:10059000AF92BF92CF92DF92FF920F931F93CF93B0
:1005A000DF9360E08091C5020E94A50082E60E9470
:1005B0004F0280E00E944F02F82E61E08091C50258
:1005C0000E94A500F3FE59C090910C029F5F90938A
:1005D0000C02F89464E089E30E947E0280E093E0DC
:1005E0000E945602C82F80918F01811103C000E044
:1005F00010E015C047E0C42E41E0D42E00E010E02A
:10060000AC2EB12C0A151B0594F70F5F1F4FC801C4
:100610009D5F0E945602F60181936F01F3CF2091F6
:10062000920130E08091C9029091CA02281B390BD7
:100630000217130764F40F5F1F4FC801875F9C4FB9
:100640000E945602F801EE56FE4F8083E8CFC09319
:100650009201D0E0CE018F5F9C4F0E9456028093A2
:100660000702CE018E5F9C4F0E94560280930802C3
:1006700060E089E30E947E027894F0FE2EC08091B3
:100680000B028F5F80930B0260E08091C5020E9495
:10069000A50088E40E944F0280E00E944F02C82F0C
:1006A00061E08091C5020E94A5008C2F90E0AC0112
:1006B0004E7F31E0452B09F030E02091060130FB00
:1006C00020F936E0959587953A95E1F78370880F84
:1006D000297F822B877F80930601DF91CF911F9125
:1006E0000F91FF90DF90CF90BF90AF9008951F9231
:1006F0000F920FB60F9211242F933F938F939F93D6
:10070000AF93BF938091870190918801A091890157
:10071000B0918A013091860123E0230F2D3720F418
:100720000196A11DB11D05C026E8230F0296A11D4B
:10073000B11D209386018093870190938801A09337
:100740008901B0938A0180918B0190918C01A091D5
:100750008D01B0918E010196A11DB11D80938B0179
:1007600090938C01A0938D01B0938E01BF91AF91B6
:100770009F918F913F912F910F900FBE0F901F90DF
:1007800018951F920F920FB60F9211242F933F933B
:100790004F935F936F937F938F939F93AF93BF9389
:1007A000EF93FF93E0910201F09103010995FF910E
:1007B000EF91BF91AF919F918F917F916F915F91D9
:1007C0004F913F912F910F900FBE0F901F90189552
:1007D0001F920F920FB60F9211242F933F934F93B6
:1007E0005F936F937F938F939F93AF93BF93EF9399
:1007F000FF93E0910001F09101010995FF91EF91C4
:10080000BF91AF919F918F917F916F915F914F9128
:100810003F912F910F900FBE0F901F9018951F9230
:100820000F920FB60F9211240F931F932F933F93A4
:100830004F935F936F937F938F939F93AF93BF93E8
:10084000CF93DF93EF93FF93809104018F5F8093A9
:100850000401882329F0EEE0F2E020E030E059C006
:100860000EE012E0E4E1F2E0C6E1D2E0CE01019751
:10087000DC014C91CF010197DC01411103C02881BB
:100880002223F9F02C9130E0808190E0B901681BBF
:10089000790B1616170644F4442389F0840F911D32
:1008A0008217930764F40AC0672B49F048814423F8
:1008B00031F0841B9109281739070CF49C0120831F
:1008C00002C08C91808380818823C9F0CF01059775
:1008D000DC018C91AF0142505109D80112962D9143
:1008E0003C911397D9019C91DA01811103C08C913D
:1008F000892B03C08C9180958923D9018C93075F44
:100900001F4F39962996B2E0023C1B0709F0AECF83
:10091000A2CF808187FD15C0E901C25FDD4F8091C4
:1009200004019E8198130DC09981A281B3818C81AD
:10093000911104C09C918095892302C09C91892BC0
:100940008C933996275F3F4F243B310511F7FF9178
:10095000EF91DF91CF91BF91AF919F918F917F9157
:100960006F915F914F913F912F911F910F910F9038
:100970000FBE0F901F901895CF9386E090E0909354
:10098000C4028093C30288E090E09093C6028093F3
:10099000C50282E090E09093C8028093C70261E0B4
:1009A00086E00E94F10061E08091C5020E94F100A2
:1009B00060E08091C7020E94F1008CB58F7D8CBDF4
:1009C0008CB5837F8CBDCFB7F8948091C202811122
:1009D00027C0EEEAF0E08491EAE9F0E09491E82F94
:1009E000F0E0EE0FFF1FEA57FF4FA591B491EC9195
:1009F000E92321F461E08AE00E94A50061E08AE039
:100A00000E94F1008CB580618CBD8CB580648CBD7A
:100A100061E08DE00E94F10061E08BE00E94F10056
:100A20008091C2028F5F8093C202CFBF8BE090E0C3
:100A30009093CA028093C902CF910895789484B5A7
:100A4000826084BD84B5816084BD85B5826085BDCA
:100A500085B5816085BD80916E00816080936E0058
:100A6000109281008091810082608093810080914A
:100A700081008160809381008091800081608093FB
:100A800080008091B10084608093B1008091B000BB
:100A900081608093B00080917A00846080937A00B6
:100AA00080917A00826080937A0080917A008160E0
:100AB00080937A0080917A00806880937A00109207
:100AC000C10017B881E087BB82E08093B1008093BA
:100AD000B00092E89093B30080937000EEE0F2E0F3
:100AE00080E090E02FEF2083DC01A25FBD4F1196E4
:100AF0001C9211971382128217961C9217971896C0
:100B00001C9239960996843B910569F710920D0263
:100B100060E083E00E942D0160E084E00E942D01EE
:100B200061E085E00E94F10083E00E94870084E09C
:100B30000E94870061E08EE00E94A50061E08FE0E6
:100B40000E94A50061E080E10E94A50061E081E1D2
:100B50000E94A50040E050E060E070E080E090E09E
:100B60000E94E90160E08091C3020E94A5006AE052
:100B700070E080E090E00E94AE0161E08091C302ED
:100B80000E94A50064E170E080E090E00E94AE0168
:100B900068E988E10E947E0265E98EE20E947E0299
:100BA00063E080E092E00E949D0261E081E092E0DB
:100BB0000E949D0260E882E092E00E949D0260E94E
:100BC00086E092E00E949D0260E887E092E00E9449
:100BD0009D0260E188E092E00E949D0261E280E275
:100BE00092E00E949D0260E88AE30E947E0260E635
:100BF0008FE30E947E0260E48EE30E947E0266EF35
:100C000082E30E947E0263E180E092E00E949D0206
:100C100064E086E30E947E0260E086E30E947E023A
:100C200061E070E080E090E00E94AE0167E082E069
:100C30000E947E026FED81E00E947E0263E180E00F
:100C400092E00E949D0262E484E00E947E0262E0E3
:100C500083E00E947E0261E080E00E947E0281E0EB
:100C600080938F0188EC92E09093010180930001C2
:100C7000809169008C7F816080936900E89A789404
:100C800086B190E0809590958F709927909391010F
:100C9000809390019C01220F331F820F931F90932A
:100CA0000A0280930902C0E0D0E080910C02882300
:100CB000A1F010920C02E0910902F0910A02EE56A6
:100CC000FE4F438150E0628170E0818190E00E949C
:100CD000E90161E08DE00E947E0280910B028111AA
:100CE00010920B02209709F30E940000DECFEE0F56
:0E0CF000FF1F0590F491E02D0994F894FFCFBA
:060CFE00E801E801FF001F
:00000001FF
